{
	"contract/Banking.sol": {
		"Banking": {
			"abi": [
				{
					"inputs": [
						{
							"internalType": "address",
							"name": "",
							"type": "address"
						}
					],
					"name": "customerBalance",
					"outputs": [
						{
							"internalType": "uint256",
							"name": "",
							"type": "uint256"
						}
					],
					"stateMutability": "view",
					"type": "function"
				},
				{
					"inputs": [],
					"name": "depositFunds",
					"outputs": [],
					"stateMutability": "payable",
					"type": "function"
				},
				{
					"inputs": [],
					"name": "viewBalance",
					"outputs": [
						{
							"internalType": "uint256",
							"name": "",
							"type": "uint256"
						}
					],
					"stateMutability": "view",
					"type": "function"
				},
				{
					"inputs": [
						{
							"internalType": "address payable",
							"name": "toAccount",
							"type": "address"
						},
						{
							"internalType": "uint256",
							"name": "amount",
							"type": "uint256"
						}
					],
					"name": "withdraw",
					"outputs": [],
					"stateMutability": "payable",
					"type": "function"
				}
			],
			"devdoc": {
				"kind": "dev",
				"methods": {},
				"version": 1
			},
			"evm": {
				"assembly": "    /* \"contract/Banking.sol\":62:922  contract Banking{... */\n  mstore(0x40, 0x80)\n  callvalue\n  dup1\n  iszero\n  tag_1\n  jumpi\n  0x00\n  dup1\n  revert\ntag_1:\n  pop\n  dataSize(sub_0)\n  dup1\n  dataOffset(sub_0)\n  0x00\n  codecopy\n  0x00\n  return\nstop\n\nsub_0: assembly {\n        /* \"contract/Banking.sol\":62:922  contract Banking{... */\n      mstore(0x40, 0x80)\n      jumpi(tag_1, lt(calldatasize, 0x04))\n      shr(0xe0, calldataload(0x00))\n      dup1\n      0x37ebe47b\n      eq\n      tag_2\n      jumpi\n      dup1\n      0x3ff1e05b\n      eq\n      tag_3\n      jumpi\n      dup1\n      0xe2c41dbc\n      eq\n      tag_4\n      jumpi\n      dup1\n      0xf3fef3a3\n      eq\n      tag_5\n      jumpi\n    tag_1:\n      0x00\n      dup1\n      revert\n        /* \"contract/Banking.sol\":134:179  mapping(address=>uint) public customerBalance */\n    tag_2:\n      callvalue\n      dup1\n      iszero\n      tag_6\n      jumpi\n      0x00\n      dup1\n      revert\n    tag_6:\n      pop\n      tag_7\n      0x04\n      dup1\n      calldatasize\n      sub\n      dup2\n      add\n      swap1\n      tag_8\n      swap2\n      swap1\n      tag_9\n      jump\t// in\n    tag_8:\n      tag_10\n      jump\t// in\n    tag_7:\n      mload(0x40)\n      tag_11\n      swap2\n      swap1\n      tag_12\n      jump\t// in\n    tag_11:\n      mload(0x40)\n      dup1\n      swap2\n      sub\n      swap1\n      return\n        /* \"contract/Banking.sol\":827:920  function viewBalance() view  public returns(uint){... */\n    tag_3:\n      callvalue\n      dup1\n      iszero\n      tag_13\n      jumpi\n      0x00\n      dup1\n      revert\n    tag_13:\n      pop\n      tag_14\n      tag_15\n      jump\t// in\n    tag_14:\n      mload(0x40)\n      tag_16\n      swap2\n      swap1\n      tag_12\n      jump\t// in\n    tag_16:\n      mload(0x40)\n      dup1\n      swap2\n      sub\n      swap1\n      return\n        /* \"contract/Banking.sol\":472:565  function depositFunds()public payable {... */\n    tag_4:\n      tag_17\n      tag_18\n      jump\t// in\n    tag_17:\n      stop\n        /* \"contract/Banking.sol\":600:789  function withdraw(address payable toAccount, uint amount) hasSufficientBalance(amount) public payable{... */\n    tag_5:\n      tag_19\n      0x04\n      dup1\n      calldatasize\n      sub\n      dup2\n      add\n      swap1\n      tag_20\n      swap2\n      swap1\n      tag_21\n      jump\t// in\n    tag_20:\n      tag_22\n      jump\t// in\n    tag_19:\n      stop\n        /* \"contract/Banking.sol\":134:179  mapping(address=>uint) public customerBalance */\n    tag_10:\n      mstore(0x20, 0x00)\n      dup1\n      0x00\n      mstore\n      keccak256(0x00, 0x40)\n      0x00\n      swap2\n      pop\n      swap1\n      pop\n      sload\n      dup2\n      jump\t// out\n        /* \"contract/Banking.sol\":827:920  function viewBalance() view  public returns(uint){... */\n    tag_15:\n        /* \"contract/Banking.sol\":871:875  uint */\n      0x00\n        /* \"contract/Banking.sol\":892:913  address(this).balance */\n      selfbalance\n        /* \"contract/Banking.sol\":885:913  return address(this).balance */\n      swap1\n      pop\n        /* \"contract/Banking.sol\":827:920  function viewBalance() view  public returns(uint){... */\n      swap1\n      jump\t// out\n        /* \"contract/Banking.sol\":472:565  function depositFunds()public payable {... */\n    tag_18:\n        /* \"contract/Banking.sol\":549:558  msg.value */\n      callvalue\n        /* \"contract/Banking.sol\":520:535  customerBalance */\n      0x00\n        /* \"contract/Banking.sol\":520:547  customerBalance[msg.sender] */\n      dup1\n        /* \"contract/Banking.sol\":536:546  msg.sender */\n      caller\n        /* \"contract/Banking.sol\":520:547  customerBalance[msg.sender] */\n      0xffffffffffffffffffffffffffffffffffffffff\n      and\n      0xffffffffffffffffffffffffffffffffffffffff\n      and\n      dup2\n      mstore\n      0x20\n      add\n      swap1\n      dup2\n      mstore\n      0x20\n      add\n      0x00\n      keccak256\n      0x00\n        /* \"contract/Banking.sol\":520:558  customerBalance[msg.sender]+=msg.value */\n      dup3\n      dup3\n      sload\n      tag_25\n      swap2\n      swap1\n      tag_26\n      jump\t// in\n    tag_25:\n      swap3\n      pop\n      pop\n      dup2\n      swap1\n      sstore\n      pop\n        /* \"contract/Banking.sol\":472:565  function depositFunds()public payable {... */\n      jump\t// out\n        /* \"contract/Banking.sol\":600:789  function withdraw(address payable toAccount, uint amount) hasSufficientBalance(amount) public payable{... */\n    tag_22:\n        /* \"contract/Banking.sol\":679:685  amount */\n      dup1\n        /* \"contract/Banking.sol\":357:372  customerBalance */\n      0x00\n        /* \"contract/Banking.sol\":357:384  customerBalance[msg.sender] */\n      dup1\n        /* \"contract/Banking.sol\":373:383  msg.sender */\n      caller\n        /* \"contract/Banking.sol\":357:384  customerBalance[msg.sender] */\n      0xffffffffffffffffffffffffffffffffffffffff\n      and\n      0xffffffffffffffffffffffffffffffffffffffff\n      and\n      dup2\n      mstore\n      0x20\n      add\n      swap1\n      dup2\n      mstore\n      0x20\n      add\n      0x00\n      keccak256\n      sload\n        /* \"contract/Banking.sol\":340:355  requestedAmount */\n      dup2\n        /* \"contract/Banking.sol\":340:384  requestedAmount<=customerBalance[msg.sender] */\n      gt\n      iszero\n        /* \"contract/Banking.sol\":332:422  require(requestedAmount<=customerBalance[msg.sender],\"You do not have sufficient balance\") */\n      tag_28\n      jumpi\n      mload(0x40)\n      0x08c379a000000000000000000000000000000000000000000000000000000000\n      dup2\n      mstore\n      0x04\n      add\n      tag_29\n      swap1\n      tag_30\n      jump\t// in\n    tag_29:\n      mload(0x40)\n      dup1\n      swap2\n      sub\n      swap1\n      revert\n    tag_28:\n        /* \"contract/Banking.sol\":740:746  amount */\n      dup2\n        /* \"contract/Banking.sol\":711:726  customerBalance */\n      0x00\n        /* \"contract/Banking.sol\":711:738  customerBalance[msg.sender] */\n      dup1\n        /* \"contract/Banking.sol\":727:737  msg.sender */\n      caller\n        /* \"contract/Banking.sol\":711:738  customerBalance[msg.sender] */\n      0xffffffffffffffffffffffffffffffffffffffff\n      and\n      0xffffffffffffffffffffffffffffffffffffffff\n      and\n      dup2\n      mstore\n      0x20\n      add\n      swap1\n      dup2\n      mstore\n      0x20\n      add\n      0x00\n      keccak256\n      0x00\n        /* \"contract/Banking.sol\":711:746  customerBalance[msg.sender]-=amount */\n      dup3\n      dup3\n      sload\n      tag_32\n      swap2\n      swap1\n      tag_33\n      jump\t// in\n    tag_32:\n      swap3\n      pop\n      pop\n      dup2\n      swap1\n      sstore\n      pop\n        /* \"contract/Banking.sol\":756:765  toAccount */\n      dup3\n        /* \"contract/Banking.sol\":756:774  toAccount.transfer */\n      0xffffffffffffffffffffffffffffffffffffffff\n      and\n        /* \"contract/Banking.sol\":756:782  toAccount.transfer(amount) */\n      0x08fc\n        /* \"contract/Banking.sol\":775:781  amount */\n      dup4\n        /* \"contract/Banking.sol\":756:782  toAccount.transfer(amount) */\n      swap1\n      dup2\n      iszero\n      mul\n      swap1\n      mload(0x40)\n      0x00\n      mload(0x40)\n      dup1\n      dup4\n      sub\n      dup2\n      dup6\n      dup9\n      dup9\n      call\n      swap4\n      pop\n      pop\n      pop\n      pop\n      iszero\n      dup1\n      iszero\n      tag_35\n      jumpi\n      returndatasize\n      0x00\n      dup1\n      returndatacopy\n      revert(0x00, returndatasize)\n    tag_35:\n      pop\n        /* \"contract/Banking.sol\":600:789  function withdraw(address payable toAccount, uint amount) hasSufficientBalance(amount) public payable{... */\n      pop\n      pop\n      pop\n      jump\t// out\n        /* \"#utility.yul\":88:205   */\n    tag_37:\n        /* \"#utility.yul\":197:198   */\n      0x00\n        /* \"#utility.yul\":194:195   */\n      dup1\n        /* \"#utility.yul\":187:199   */\n      revert\n        /* \"#utility.yul\":334:460   */\n    tag_39:\n        /* \"#utility.yul\":371:378   */\n      0x00\n        /* \"#utility.yul\":411:453   */\n      0xffffffffffffffffffffffffffffffffffffffff\n        /* \"#utility.yul\":404:409   */\n      dup3\n        /* \"#utility.yul\":400:454   */\n      and\n        /* \"#utility.yul\":389:454   */\n      swap1\n      pop\n        /* \"#utility.yul\":334:460   */\n      swap2\n      swap1\n      pop\n      jump\t// out\n        /* \"#utility.yul\":466:562   */\n    tag_40:\n        /* \"#utility.yul\":503:510   */\n      0x00\n        /* \"#utility.yul\":532:556   */\n      tag_60\n        /* \"#utility.yul\":550:555   */\n      dup3\n        /* \"#utility.yul\":532:556   */\n      tag_39\n      jump\t// in\n    tag_60:\n        /* \"#utility.yul\":521:556   */\n      swap1\n      pop\n        /* \"#utility.yul\":466:562   */\n      swap2\n      swap1\n      pop\n      jump\t// out\n        /* \"#utility.yul\":568:690   */\n    tag_41:\n        /* \"#utility.yul\":641:665   */\n      tag_62\n        /* \"#utility.yul\":659:664   */\n      dup2\n        /* \"#utility.yul\":641:665   */\n      tag_40\n      jump\t// in\n    tag_62:\n        /* \"#utility.yul\":634:639   */\n      dup2\n        /* \"#utility.yul\":631:666   */\n      eq\n        /* \"#utility.yul\":621:684   */\n      tag_63\n      jumpi\n        /* \"#utility.yul\":680:681   */\n      0x00\n        /* \"#utility.yul\":677:678   */\n      dup1\n        /* \"#utility.yul\":670:682   */\n      revert\n        /* \"#utility.yul\":621:684   */\n    tag_63:\n        /* \"#utility.yul\":568:690   */\n      pop\n      jump\t// out\n        /* \"#utility.yul\":696:835   */\n    tag_42:\n        /* \"#utility.yul\":742:747   */\n      0x00\n        /* \"#utility.yul\":780:786   */\n      dup2\n        /* \"#utility.yul\":767:787   */\n      calldataload\n        /* \"#utility.yul\":758:787   */\n      swap1\n      pop\n        /* \"#utility.yul\":796:829   */\n      tag_65\n        /* \"#utility.yul\":823:828   */\n      dup2\n        /* \"#utility.yul\":796:829   */\n      tag_41\n      jump\t// in\n    tag_65:\n        /* \"#utility.yul\":696:835   */\n      swap3\n      swap2\n      pop\n      pop\n      jump\t// out\n        /* \"#utility.yul\":841:1170   */\n    tag_9:\n        /* \"#utility.yul\":900:906   */\n      0x00\n        /* \"#utility.yul\":949:951   */\n      0x20\n        /* \"#utility.yul\":937:946   */\n      dup3\n        /* \"#utility.yul\":928:935   */\n      dup5\n        /* \"#utility.yul\":924:947   */\n      sub\n        /* \"#utility.yul\":920:952   */\n      slt\n        /* \"#utility.yul\":917:1036   */\n      iszero\n      tag_67\n      jumpi\n        /* \"#utility.yul\":955:1034   */\n      tag_68\n      tag_37\n      jump\t// in\n    tag_68:\n        /* \"#utility.yul\":917:1036   */\n    tag_67:\n        /* \"#utility.yul\":1075:1076   */\n      0x00\n        /* \"#utility.yul\":1100:1153   */\n      tag_69\n        /* \"#utility.yul\":1145:1152   */\n      dup5\n        /* \"#utility.yul\":1136:1142   */\n      dup3\n        /* \"#utility.yul\":1125:1134   */\n      dup6\n        /* \"#utility.yul\":1121:1143   */\n      add\n        /* \"#utility.yul\":1100:1153   */\n      tag_42\n      jump\t// in\n    tag_69:\n        /* \"#utility.yul\":1090:1153   */\n      swap2\n      pop\n        /* \"#utility.yul\":1046:1163   */\n      pop\n        /* \"#utility.yul\":841:1170   */\n      swap3\n      swap2\n      pop\n      pop\n      jump\t// out\n        /* \"#utility.yul\":1176:1253   */\n    tag_43:\n        /* \"#utility.yul\":1213:1220   */\n      0x00\n        /* \"#utility.yul\":1242:1247   */\n      dup2\n        /* \"#utility.yul\":1231:1247   */\n      swap1\n      pop\n        /* \"#utility.yul\":1176:1253   */\n      swap2\n      swap1\n      pop\n      jump\t// out\n        /* \"#utility.yul\":1259:1377   */\n    tag_44:\n        /* \"#utility.yul\":1346:1370   */\n      tag_72\n        /* \"#utility.yul\":1364:1369   */\n      dup2\n        /* \"#utility.yul\":1346:1370   */\n      tag_43\n      jump\t// in\n    tag_72:\n        /* \"#utility.yul\":1341:1344   */\n      dup3\n        /* \"#utility.yul\":1334:1371   */\n      mstore\n        /* \"#utility.yul\":1259:1377   */\n      pop\n      pop\n      jump\t// out\n        /* \"#utility.yul\":1383:1605   */\n    tag_12:\n        /* \"#utility.yul\":1476:1480   */\n      0x00\n        /* \"#utility.yul\":1514:1516   */\n      0x20\n        /* \"#utility.yul\":1503:1512   */\n      dup3\n        /* \"#utility.yul\":1499:1517   */\n      add\n        /* \"#utility.yul\":1491:1517   */\n      swap1\n      pop\n        /* \"#utility.yul\":1527:1598   */\n      tag_74\n        /* \"#utility.yul\":1595:1596   */\n      0x00\n        /* \"#utility.yul\":1584:1593   */\n      dup4\n        /* \"#utility.yul\":1580:1597   */\n      add\n        /* \"#utility.yul\":1571:1577   */\n      dup5\n        /* \"#utility.yul\":1527:1598   */\n      tag_44\n      jump\t// in\n    tag_74:\n        /* \"#utility.yul\":1383:1605   */\n      swap3\n      swap2\n      pop\n      pop\n      jump\t// out\n        /* \"#utility.yul\":1611:1715   */\n    tag_45:\n        /* \"#utility.yul\":1656:1663   */\n      0x00\n        /* \"#utility.yul\":1685:1709   */\n      tag_76\n        /* \"#utility.yul\":1703:1708   */\n      dup3\n        /* \"#utility.yul\":1685:1709   */\n      tag_39\n      jump\t// in\n    tag_76:\n        /* \"#utility.yul\":1674:1709   */\n      swap1\n      pop\n        /* \"#utility.yul\":1611:1715   */\n      swap2\n      swap1\n      pop\n      jump\t// out\n        /* \"#utility.yul\":1721:1859   */\n    tag_46:\n        /* \"#utility.yul\":1802:1834   */\n      tag_78\n        /* \"#utility.yul\":1828:1833   */\n      dup2\n        /* \"#utility.yul\":1802:1834   */\n      tag_45\n      jump\t// in\n    tag_78:\n        /* \"#utility.yul\":1795:1800   */\n      dup2\n        /* \"#utility.yul\":1792:1835   */\n      eq\n        /* \"#utility.yul\":1782:1853   */\n      tag_79\n      jumpi\n        /* \"#utility.yul\":1849:1850   */\n      0x00\n        /* \"#utility.yul\":1846:1847   */\n      dup1\n        /* \"#utility.yul\":1839:1851   */\n      revert\n        /* \"#utility.yul\":1782:1853   */\n    tag_79:\n        /* \"#utility.yul\":1721:1859   */\n      pop\n      jump\t// out\n        /* \"#utility.yul\":1865:2020   */\n    tag_47:\n        /* \"#utility.yul\":1919:1924   */\n      0x00\n        /* \"#utility.yul\":1957:1963   */\n      dup2\n        /* \"#utility.yul\":1944:1964   */\n      calldataload\n        /* \"#utility.yul\":1935:1964   */\n      swap1\n      pop\n        /* \"#utility.yul\":1973:2014   */\n      tag_81\n        /* \"#utility.yul\":2008:2013   */\n      dup2\n        /* \"#utility.yul\":1973:2014   */\n      tag_46\n      jump\t// in\n    tag_81:\n        /* \"#utility.yul\":1865:2020   */\n      swap3\n      swap2\n      pop\n      pop\n      jump\t// out\n        /* \"#utility.yul\":2026:2148   */\n    tag_48:\n        /* \"#utility.yul\":2099:2123   */\n      tag_83\n        /* \"#utility.yul\":2117:2122   */\n      dup2\n        /* \"#utility.yul\":2099:2123   */\n      tag_43\n      jump\t// in\n    tag_83:\n        /* \"#utility.yul\":2092:2097   */\n      dup2\n        /* \"#utility.yul\":2089:2124   */\n      eq\n        /* \"#utility.yul\":2079:2142   */\n      tag_84\n      jumpi\n        /* \"#utility.yul\":2138:2139   */\n      0x00\n        /* \"#utility.yul\":2135:2136   */\n      dup1\n        /* \"#utility.yul\":2128:2140   */\n      revert\n        /* \"#utility.yul\":2079:2142   */\n    tag_84:\n        /* \"#utility.yul\":2026:2148   */\n      pop\n      jump\t// out\n        /* \"#utility.yul\":2154:2293   */\n    tag_49:\n        /* \"#utility.yul\":2200:2205   */\n      0x00\n        /* \"#utility.yul\":2238:2244   */\n      dup2\n        /* \"#utility.yul\":2225:2245   */\n      calldataload\n        /* \"#utility.yul\":2216:2245   */\n      swap1\n      pop\n        /* \"#utility.yul\":2254:2287   */\n      tag_86\n        /* \"#utility.yul\":2281:2286   */\n      dup2\n        /* \"#utility.yul\":2254:2287   */\n      tag_48\n      jump\t// in\n    tag_86:\n        /* \"#utility.yul\":2154:2293   */\n      swap3\n      swap2\n      pop\n      pop\n      jump\t// out\n        /* \"#utility.yul\":2299:2789   */\n    tag_21:\n        /* \"#utility.yul\":2375:2381   */\n      0x00\n        /* \"#utility.yul\":2383:2389   */\n      dup1\n        /* \"#utility.yul\":2432:2434   */\n      0x40\n        /* \"#utility.yul\":2420:2429   */\n      dup4\n        /* \"#utility.yul\":2411:2418   */\n      dup6\n        /* \"#utility.yul\":2407:2430   */\n      sub\n        /* \"#utility.yul\":2403:2435   */\n      slt\n        /* \"#utility.yul\":2400:2519   */\n      iszero\n      tag_88\n      jumpi\n        /* \"#utility.yul\":2438:2517   */\n      tag_89\n      tag_37\n      jump\t// in\n    tag_89:\n        /* \"#utility.yul\":2400:2519   */\n    tag_88:\n        /* \"#utility.yul\":2558:2559   */\n      0x00\n        /* \"#utility.yul\":2583:2644   */\n      tag_90\n        /* \"#utility.yul\":2636:2643   */\n      dup6\n        /* \"#utility.yul\":2627:2633   */\n      dup3\n        /* \"#utility.yul\":2616:2625   */\n      dup7\n        /* \"#utility.yul\":2612:2634   */\n      add\n        /* \"#utility.yul\":2583:2644   */\n      tag_47\n      jump\t// in\n    tag_90:\n        /* \"#utility.yul\":2573:2644   */\n      swap3\n      pop\n        /* \"#utility.yul\":2529:2654   */\n      pop\n        /* \"#utility.yul\":2693:2695   */\n      0x20\n        /* \"#utility.yul\":2719:2772   */\n      tag_91\n        /* \"#utility.yul\":2764:2771   */\n      dup6\n        /* \"#utility.yul\":2755:2761   */\n      dup3\n        /* \"#utility.yul\":2744:2753   */\n      dup7\n        /* \"#utility.yul\":2740:2762   */\n      add\n        /* \"#utility.yul\":2719:2772   */\n      tag_49\n      jump\t// in\n    tag_91:\n        /* \"#utility.yul\":2709:2772   */\n      swap2\n      pop\n        /* \"#utility.yul\":2664:2782   */\n      pop\n        /* \"#utility.yul\":2299:2789   */\n      swap3\n      pop\n      swap3\n      swap1\n      pop\n      jump\t// out\n        /* \"#utility.yul\":2795:2975   */\n    tag_50:\n        /* \"#utility.yul\":2843:2920   */\n      0x4e487b7100000000000000000000000000000000000000000000000000000000\n        /* \"#utility.yul\":2840:2841   */\n      0x00\n        /* \"#utility.yul\":2833:2921   */\n      mstore\n        /* \"#utility.yul\":2940:2944   */\n      0x11\n        /* \"#utility.yul\":2937:2938   */\n      0x04\n        /* \"#utility.yul\":2930:2945   */\n      mstore\n        /* \"#utility.yul\":2964:2968   */\n      0x24\n        /* \"#utility.yul\":2961:2962   */\n      0x00\n        /* \"#utility.yul\":2954:2969   */\n      revert\n        /* \"#utility.yul\":2981:3172   */\n    tag_26:\n        /* \"#utility.yul\":3021:3024   */\n      0x00\n        /* \"#utility.yul\":3040:3060   */\n      tag_94\n        /* \"#utility.yul\":3058:3059   */\n      dup3\n        /* \"#utility.yul\":3040:3060   */\n      tag_43\n      jump\t// in\n    tag_94:\n        /* \"#utility.yul\":3035:3060   */\n      swap2\n      pop\n        /* \"#utility.yul\":3074:3094   */\n      tag_95\n        /* \"#utility.yul\":3092:3093   */\n      dup4\n        /* \"#utility.yul\":3074:3094   */\n      tag_43\n      jump\t// in\n    tag_95:\n        /* \"#utility.yul\":3069:3094   */\n      swap3\n      pop\n        /* \"#utility.yul\":3117:3118   */\n      dup3\n        /* \"#utility.yul\":3114:3115   */\n      dup3\n        /* \"#utility.yul\":3110:3119   */\n      add\n        /* \"#utility.yul\":3103:3119   */\n      swap1\n      pop\n        /* \"#utility.yul\":3138:3141   */\n      dup1\n        /* \"#utility.yul\":3135:3136   */\n      dup3\n        /* \"#utility.yul\":3132:3142   */\n      gt\n        /* \"#utility.yul\":3129:3165   */\n      iszero\n      tag_96\n      jumpi\n        /* \"#utility.yul\":3145:3163   */\n      tag_97\n      tag_50\n      jump\t// in\n    tag_97:\n        /* \"#utility.yul\":3129:3165   */\n    tag_96:\n        /* \"#utility.yul\":2981:3172   */\n      swap3\n      swap2\n      pop\n      pop\n      jump\t// out\n        /* \"#utility.yul\":3178:3347   */\n    tag_51:\n        /* \"#utility.yul\":3262:3273   */\n      0x00\n        /* \"#utility.yul\":3296:3302   */\n      dup3\n        /* \"#utility.yul\":3291:3294   */\n      dup3\n        /* \"#utility.yul\":3284:3303   */\n      mstore\n        /* \"#utility.yul\":3336:3340   */\n      0x20\n        /* \"#utility.yul\":3331:3334   */\n      dup3\n        /* \"#utility.yul\":3327:3341   */\n      add\n        /* \"#utility.yul\":3312:3341   */\n      swap1\n      pop\n        /* \"#utility.yul\":3178:3347   */\n      swap3\n      swap2\n      pop\n      pop\n      jump\t// out\n        /* \"#utility.yul\":3353:3574   */\n    tag_52:\n        /* \"#utility.yul\":3493:3527   */\n      0x596f7520646f206e6f7420686176652073756666696369656e742062616c616e\n        /* \"#utility.yul\":3489:3490   */\n      0x00\n        /* \"#utility.yul\":3481:3487   */\n      dup3\n        /* \"#utility.yul\":3477:3491   */\n      add\n        /* \"#utility.yul\":3470:3528   */\n      mstore\n        /* \"#utility.yul\":3562:3566   */\n      0x6365000000000000000000000000000000000000000000000000000000000000\n        /* \"#utility.yul\":3557:3559   */\n      0x20\n        /* \"#utility.yul\":3549:3555   */\n      dup3\n        /* \"#utility.yul\":3545:3560   */\n      add\n        /* \"#utility.yul\":3538:3567   */\n      mstore\n        /* \"#utility.yul\":3353:3574   */\n      pop\n      jump\t// out\n        /* \"#utility.yul\":3580:3946   */\n    tag_53:\n        /* \"#utility.yul\":3722:3725   */\n      0x00\n        /* \"#utility.yul\":3743:3810   */\n      tag_101\n        /* \"#utility.yul\":3807:3809   */\n      0x22\n        /* \"#utility.yul\":3802:3805   */\n      dup4\n        /* \"#utility.yul\":3743:3810   */\n      tag_51\n      jump\t// in\n    tag_101:\n        /* \"#utility.yul\":3736:3810   */\n      swap2\n      pop\n        /* \"#utility.yul\":3819:3912   */\n      tag_102\n        /* \"#utility.yul\":3908:3911   */\n      dup3\n        /* \"#utility.yul\":3819:3912   */\n      tag_52\n      jump\t// in\n    tag_102:\n        /* \"#utility.yul\":3937:3939   */\n      0x40\n        /* \"#utility.yul\":3932:3935   */\n      dup3\n        /* \"#utility.yul\":3928:3940   */\n      add\n        /* \"#utility.yul\":3921:3940   */\n      swap1\n      pop\n        /* \"#utility.yul\":3580:3946   */\n      swap2\n      swap1\n      pop\n      jump\t// out\n        /* \"#utility.yul\":3952:4371   */\n    tag_30:\n        /* \"#utility.yul\":4118:4122   */\n      0x00\n        /* \"#utility.yul\":4156:4158   */\n      0x20\n        /* \"#utility.yul\":4145:4154   */\n      dup3\n        /* \"#utility.yul\":4141:4159   */\n      add\n        /* \"#utility.yul\":4133:4159   */\n      swap1\n      pop\n        /* \"#utility.yul\":4205:4214   */\n      dup2\n        /* \"#utility.yul\":4199:4203   */\n      dup2\n        /* \"#utility.yul\":4195:4215   */\n      sub\n        /* \"#utility.yul\":4191:4192   */\n      0x00\n        /* \"#utility.yul\":4180:4189   */\n      dup4\n        /* \"#utility.yul\":4176:4193   */\n      add\n        /* \"#utility.yul\":4169:4216   */\n      mstore\n        /* \"#utility.yul\":4233:4364   */\n      tag_104\n        /* \"#utility.yul\":4359:4363   */\n      dup2\n        /* \"#utility.yul\":4233:4364   */\n      tag_53\n      jump\t// in\n    tag_104:\n        /* \"#utility.yul\":4225:4364   */\n      swap1\n      pop\n        /* \"#utility.yul\":3952:4371   */\n      swap2\n      swap1\n      pop\n      jump\t// out\n        /* \"#utility.yul\":4377:4571   */\n    tag_33:\n        /* \"#utility.yul\":4417:4421   */\n      0x00\n        /* \"#utility.yul\":4437:4457   */\n      tag_106\n        /* \"#utility.yul\":4455:4456   */\n      dup3\n        /* \"#utility.yul\":4437:4457   */\n      tag_43\n      jump\t// in\n    tag_106:\n        /* \"#utility.yul\":4432:4457   */\n      swap2\n      pop\n        /* \"#utility.yul\":4471:4491   */\n      tag_107\n        /* \"#utility.yul\":4489:4490   */\n      dup4\n        /* \"#utility.yul\":4471:4491   */\n      tag_43\n      jump\t// in\n    tag_107:\n        /* \"#utility.yul\":4466:4491   */\n      swap3\n      pop\n        /* \"#utility.yul\":4515:4516   */\n      dup3\n        /* \"#utility.yul\":4512:4513   */\n      dup3\n        /* \"#utility.yul\":4508:4517   */\n      sub\n        /* \"#utility.yul\":4500:4517   */\n      swap1\n      pop\n        /* \"#utility.yul\":4539:4540   */\n      dup2\n        /* \"#utility.yul\":4533:4537   */\n      dup2\n        /* \"#utility.yul\":4530:4541   */\n      gt\n        /* \"#utility.yul\":4527:4564   */\n      iszero\n      tag_108\n      jumpi\n        /* \"#utility.yul\":4544:4562   */\n      tag_109\n      tag_50\n      jump\t// in\n    tag_109:\n        /* \"#utility.yul\":4527:4564   */\n    tag_108:\n        /* \"#utility.yul\":4377:4571   */\n      swap3\n      swap2\n      pop\n      pop\n      jump\t// out\n\n    auxdata: 0xa26469706673582212204238bd8e9b3a4e1564a2f43711716b5648c35786fa8b22dd57ad2f82f624de4864736f6c63430008120033\n}\n",
				"bytecode": {
					"linkReferences": {},
					"object": "608060405234801561001057600080fd5b5061054a806100206000396000f3fe60806040526004361061003f5760003560e01c806337ebe47b146100445780633ff1e05b14610081578063e2c41dbc146100ac578063f3fef3a3146100b6575b600080fd5b34801561005057600080fd5b5061006b600480360381019061006691906102cf565b6100d2565b6040516100789190610315565b60405180910390f35b34801561008d57600080fd5b506100966100ea565b6040516100a39190610315565b60405180910390f35b6100b46100f2565b005b6100d060048036038101906100cb919061039a565b610149565b005b60006020528060005260406000206000915090505481565b600047905090565b346000803373ffffffffffffffffffffffffffffffffffffffff1673ffffffffffffffffffffffffffffffffffffffff16815260200190815260200160002060008282546101409190610409565b92505081905550565b806000803373ffffffffffffffffffffffffffffffffffffffff1673ffffffffffffffffffffffffffffffffffffffff168152602001908152602001600020548111156101cb576040517f08c379a00000000000000000000000000000000000000000000000000000000081526004016101c2906104c0565b60405180910390fd5b816000803373ffffffffffffffffffffffffffffffffffffffff1673ffffffffffffffffffffffffffffffffffffffff168152602001908152602001600020600082825461021991906104e0565b925050819055508273ffffffffffffffffffffffffffffffffffffffff166108fc839081150290604051600060405180830381858888f19350505050158015610266573d6000803e3d6000fd5b50505050565b600080fd5b600073ffffffffffffffffffffffffffffffffffffffff82169050919050565b600061029c82610271565b9050919050565b6102ac81610291565b81146102b757600080fd5b50565b6000813590506102c9816102a3565b92915050565b6000602082840312156102e5576102e461026c565b5b60006102f3848285016102ba565b91505092915050565b6000819050919050565b61030f816102fc565b82525050565b600060208201905061032a6000830184610306565b92915050565b600061033b82610271565b9050919050565b61034b81610330565b811461035657600080fd5b50565b60008135905061036881610342565b92915050565b610377816102fc565b811461038257600080fd5b50565b6000813590506103948161036e565b92915050565b600080604083850312156103b1576103b061026c565b5b60006103bf85828601610359565b92505060206103d085828601610385565b9150509250929050565b7f4e487b7100000000000000000000000000000000000000000000000000000000600052601160045260246000fd5b6000610414826102fc565b915061041f836102fc565b9250828201905080821115610437576104366103da565b5b92915050565b600082825260208201905092915050565b7f596f7520646f206e6f7420686176652073756666696369656e742062616c616e60008201527f6365000000000000000000000000000000000000000000000000000000000000602082015250565b60006104aa60228361043d565b91506104b58261044e565b604082019050919050565b600060208201905081810360008301526104d98161049d565b9050919050565b60006104eb826102fc565b91506104f6836102fc565b925082820390508181111561050e5761050d6103da565b5b9291505056fea26469706673582212204238bd8e9b3a4e1564a2f43711716b5648c35786fa8b22dd57ad2f82f624de4864736f6c63430008120033",
					"opcodes": "PUSH1 0x80 PUSH1 0x40 MSTORE CALLVALUE DUP1 ISZERO PUSH2 0x10 JUMPI PUSH1 0x0 DUP1 REVERT JUMPDEST POP PUSH2 0x54A DUP1 PUSH2 0x20 PUSH1 0x0 CODECOPY PUSH1 0x0 RETURN INVALID PUSH1 0x80 PUSH1 0x40 MSTORE PUSH1 0x4 CALLDATASIZE LT PUSH2 0x3F JUMPI PUSH1 0x0 CALLDATALOAD PUSH1 0xE0 SHR DUP1 PUSH4 0x37EBE47B EQ PUSH2 0x44 JUMPI DUP1 PUSH4 0x3FF1E05B EQ PUSH2 0x81 JUMPI DUP1 PUSH4 0xE2C41DBC EQ PUSH2 0xAC JUMPI DUP1 PUSH4 0xF3FEF3A3 EQ PUSH2 0xB6 JUMPI JUMPDEST PUSH1 0x0 DUP1 REVERT JUMPDEST CALLVALUE DUP1 ISZERO PUSH2 0x50 JUMPI PUSH1 0x0 DUP1 REVERT JUMPDEST POP PUSH2 0x6B PUSH1 0x4 DUP1 CALLDATASIZE SUB DUP2 ADD SWAP1 PUSH2 0x66 SWAP2 SWAP1 PUSH2 0x2CF JUMP JUMPDEST PUSH2 0xD2 JUMP JUMPDEST PUSH1 0x40 MLOAD PUSH2 0x78 SWAP2 SWAP1 PUSH2 0x315 JUMP JUMPDEST PUSH1 0x40 MLOAD DUP1 SWAP2 SUB SWAP1 RETURN JUMPDEST CALLVALUE DUP1 ISZERO PUSH2 0x8D JUMPI PUSH1 0x0 DUP1 REVERT JUMPDEST POP PUSH2 0x96 PUSH2 0xEA JUMP JUMPDEST PUSH1 0x40 MLOAD PUSH2 0xA3 SWAP2 SWAP1 PUSH2 0x315 JUMP JUMPDEST PUSH1 0x40 MLOAD DUP1 SWAP2 SUB SWAP1 RETURN JUMPDEST PUSH2 0xB4 PUSH2 0xF2 JUMP JUMPDEST STOP JUMPDEST PUSH2 0xD0 PUSH1 0x4 DUP1 CALLDATASIZE SUB DUP2 ADD SWAP1 PUSH2 0xCB SWAP2 SWAP1 PUSH2 0x39A JUMP JUMPDEST PUSH2 0x149 JUMP JUMPDEST STOP JUMPDEST PUSH1 0x0 PUSH1 0x20 MSTORE DUP1 PUSH1 0x0 MSTORE PUSH1 0x40 PUSH1 0x0 KECCAK256 PUSH1 0x0 SWAP2 POP SWAP1 POP SLOAD DUP2 JUMP JUMPDEST PUSH1 0x0 SELFBALANCE SWAP1 POP SWAP1 JUMP JUMPDEST CALLVALUE PUSH1 0x0 DUP1 CALLER PUSH20 0xFFFFFFFFFFFFFFFFFFFFFFFFFFFFFFFFFFFFFFFF AND PUSH20 0xFFFFFFFFFFFFFFFFFFFFFFFFFFFFFFFFFFFFFFFF AND DUP2 MSTORE PUSH1 0x20 ADD SWAP1 DUP2 MSTORE PUSH1 0x20 ADD PUSH1 0x0 KECCAK256 PUSH1 0x0 DUP3 DUP3 SLOAD PUSH2 0x140 SWAP2 SWAP1 PUSH2 0x409 JUMP JUMPDEST SWAP3 POP POP DUP2 SWAP1 SSTORE POP JUMP JUMPDEST DUP1 PUSH1 0x0 DUP1 CALLER PUSH20 0xFFFFFFFFFFFFFFFFFFFFFFFFFFFFFFFFFFFFFFFF AND PUSH20 0xFFFFFFFFFFFFFFFFFFFFFFFFFFFFFFFFFFFFFFFF AND DUP2 MSTORE PUSH1 0x20 ADD SWAP1 DUP2 MSTORE PUSH1 0x20 ADD PUSH1 0x0 KECCAK256 SLOAD DUP2 GT ISZERO PUSH2 0x1CB JUMPI PUSH1 0x40 MLOAD PUSH32 0x8C379A000000000000000000000000000000000000000000000000000000000 DUP2 MSTORE PUSH1 0x4 ADD PUSH2 0x1C2 SWAP1 PUSH2 0x4C0 JUMP JUMPDEST PUSH1 0x40 MLOAD DUP1 SWAP2 SUB SWAP1 REVERT JUMPDEST DUP2 PUSH1 0x0 DUP1 CALLER PUSH20 0xFFFFFFFFFFFFFFFFFFFFFFFFFFFFFFFFFFFFFFFF AND PUSH20 0xFFFFFFFFFFFFFFFFFFFFFFFFFFFFFFFFFFFFFFFF AND DUP2 MSTORE PUSH1 0x20 ADD SWAP1 DUP2 MSTORE PUSH1 0x20 ADD PUSH1 0x0 KECCAK256 PUSH1 0x0 DUP3 DUP3 SLOAD PUSH2 0x219 SWAP2 SWAP1 PUSH2 0x4E0 JUMP JUMPDEST SWAP3 POP POP DUP2 SWAP1 SSTORE POP DUP3 PUSH20 0xFFFFFFFFFFFFFFFFFFFFFFFFFFFFFFFFFFFFFFFF AND PUSH2 0x8FC DUP4 SWAP1 DUP2 ISZERO MUL SWAP1 PUSH1 0x40 MLOAD PUSH1 0x0 PUSH1 0x40 MLOAD DUP1 DUP4 SUB DUP2 DUP6 DUP9 DUP9 CALL SWAP4 POP POP POP POP ISZERO DUP1 ISZERO PUSH2 0x266 JUMPI RETURNDATASIZE PUSH1 0x0 DUP1 RETURNDATACOPY RETURNDATASIZE PUSH1 0x0 REVERT JUMPDEST POP POP POP POP JUMP JUMPDEST PUSH1 0x0 DUP1 REVERT JUMPDEST PUSH1 0x0 PUSH20 0xFFFFFFFFFFFFFFFFFFFFFFFFFFFFFFFFFFFFFFFF DUP3 AND SWAP1 POP SWAP2 SWAP1 POP JUMP JUMPDEST PUSH1 0x0 PUSH2 0x29C DUP3 PUSH2 0x271 JUMP JUMPDEST SWAP1 POP SWAP2 SWAP1 POP JUMP JUMPDEST PUSH2 0x2AC DUP2 PUSH2 0x291 JUMP JUMPDEST DUP2 EQ PUSH2 0x2B7 JUMPI PUSH1 0x0 DUP1 REVERT JUMPDEST POP JUMP JUMPDEST PUSH1 0x0 DUP2 CALLDATALOAD SWAP1 POP PUSH2 0x2C9 DUP2 PUSH2 0x2A3 JUMP JUMPDEST SWAP3 SWAP2 POP POP JUMP JUMPDEST PUSH1 0x0 PUSH1 0x20 DUP3 DUP5 SUB SLT ISZERO PUSH2 0x2E5 JUMPI PUSH2 0x2E4 PUSH2 0x26C JUMP JUMPDEST JUMPDEST PUSH1 0x0 PUSH2 0x2F3 DUP5 DUP3 DUP6 ADD PUSH2 0x2BA JUMP JUMPDEST SWAP2 POP POP SWAP3 SWAP2 POP POP JUMP JUMPDEST PUSH1 0x0 DUP2 SWAP1 POP SWAP2 SWAP1 POP JUMP JUMPDEST PUSH2 0x30F DUP2 PUSH2 0x2FC JUMP JUMPDEST DUP3 MSTORE POP POP JUMP JUMPDEST PUSH1 0x0 PUSH1 0x20 DUP3 ADD SWAP1 POP PUSH2 0x32A PUSH1 0x0 DUP4 ADD DUP5 PUSH2 0x306 JUMP JUMPDEST SWAP3 SWAP2 POP POP JUMP JUMPDEST PUSH1 0x0 PUSH2 0x33B DUP3 PUSH2 0x271 JUMP JUMPDEST SWAP1 POP SWAP2 SWAP1 POP JUMP JUMPDEST PUSH2 0x34B DUP2 PUSH2 0x330 JUMP JUMPDEST DUP2 EQ PUSH2 0x356 JUMPI PUSH1 0x0 DUP1 REVERT JUMPDEST POP JUMP JUMPDEST PUSH1 0x0 DUP2 CALLDATALOAD SWAP1 POP PUSH2 0x368 DUP2 PUSH2 0x342 JUMP JUMPDEST SWAP3 SWAP2 POP POP JUMP JUMPDEST PUSH2 0x377 DUP2 PUSH2 0x2FC JUMP JUMPDEST DUP2 EQ PUSH2 0x382 JUMPI PUSH1 0x0 DUP1 REVERT JUMPDEST POP JUMP JUMPDEST PUSH1 0x0 DUP2 CALLDATALOAD SWAP1 POP PUSH2 0x394 DUP2 PUSH2 0x36E JUMP JUMPDEST SWAP3 SWAP2 POP POP JUMP JUMPDEST PUSH1 0x0 DUP1 PUSH1 0x40 DUP4 DUP6 SUB SLT ISZERO PUSH2 0x3B1 JUMPI PUSH2 0x3B0 PUSH2 0x26C JUMP JUMPDEST JUMPDEST PUSH1 0x0 PUSH2 0x3BF DUP6 DUP3 DUP7 ADD PUSH2 0x359 JUMP JUMPDEST SWAP3 POP POP PUSH1 0x20 PUSH2 0x3D0 DUP6 DUP3 DUP7 ADD PUSH2 0x385 JUMP JUMPDEST SWAP2 POP POP SWAP3 POP SWAP3 SWAP1 POP JUMP JUMPDEST PUSH32 0x4E487B7100000000000000000000000000000000000000000000000000000000 PUSH1 0x0 MSTORE PUSH1 0x11 PUSH1 0x4 MSTORE PUSH1 0x24 PUSH1 0x0 REVERT JUMPDEST PUSH1 0x0 PUSH2 0x414 DUP3 PUSH2 0x2FC JUMP JUMPDEST SWAP2 POP PUSH2 0x41F DUP4 PUSH2 0x2FC JUMP JUMPDEST SWAP3 POP DUP3 DUP3 ADD SWAP1 POP DUP1 DUP3 GT ISZERO PUSH2 0x437 JUMPI PUSH2 0x436 PUSH2 0x3DA JUMP JUMPDEST JUMPDEST SWAP3 SWAP2 POP POP JUMP JUMPDEST PUSH1 0x0 DUP3 DUP3 MSTORE PUSH1 0x20 DUP3 ADD SWAP1 POP SWAP3 SWAP2 POP POP JUMP JUMPDEST PUSH32 0x596F7520646F206E6F7420686176652073756666696369656E742062616C616E PUSH1 0x0 DUP3 ADD MSTORE PUSH32 0x6365000000000000000000000000000000000000000000000000000000000000 PUSH1 0x20 DUP3 ADD MSTORE POP JUMP JUMPDEST PUSH1 0x0 PUSH2 0x4AA PUSH1 0x22 DUP4 PUSH2 0x43D JUMP JUMPDEST SWAP2 POP PUSH2 0x4B5 DUP3 PUSH2 0x44E JUMP JUMPDEST PUSH1 0x40 DUP3 ADD SWAP1 POP SWAP2 SWAP1 POP JUMP JUMPDEST PUSH1 0x0 PUSH1 0x20 DUP3 ADD SWAP1 POP DUP2 DUP2 SUB PUSH1 0x0 DUP4 ADD MSTORE PUSH2 0x4D9 DUP2 PUSH2 0x49D JUMP JUMPDEST SWAP1 POP SWAP2 SWAP1 POP JUMP JUMPDEST PUSH1 0x0 PUSH2 0x4EB DUP3 PUSH2 0x2FC JUMP JUMPDEST SWAP2 POP PUSH2 0x4F6 DUP4 PUSH2 0x2FC JUMP JUMPDEST SWAP3 POP DUP3 DUP3 SUB SWAP1 POP DUP2 DUP2 GT ISZERO PUSH2 0x50E JUMPI PUSH2 0x50D PUSH2 0x3DA JUMP JUMPDEST JUMPDEST SWAP3 SWAP2 POP POP JUMP INVALID LOG2 PUSH5 0x6970667358 0x22 SLT KECCAK256 TIMESTAMP CODESIZE 0xBD DUP15 SWAP12 GASPRICE 0x4E ISZERO PUSH5 0xA2F4371171 PUSH12 0x5648C35786FA8B22DD57AD2F DUP3 0xF6 0x24 0xDE BASEFEE PUSH5 0x736F6C6343 STOP ADDMOD SLT STOP CALLER "
				},
				"gasEstimates": {
					"creation": {
						"codeDepositCost": "270800",
						"executionCost": "312",
						"totalCost": "271112"
					},
					"external": {
						"customerBalance(address)": "2792",
						"depositFunds()": "infinite",
						"viewBalance()": "339",
						"withdraw(address,uint256)": "infinite"
					}
				},
				"methodIdentifiers": {
					"customerBalance(address)": "37ebe47b",
					"depositFunds()": "e2c41dbc",
					"viewBalance()": "3ff1e05b",
					"withdraw(address,uint256)": "f3fef3a3"
				}
			},
			"storageLayout": {
				"storage": [
					{
						"astId": 5,
						"contract": "contract/Banking.sol:Banking",
						"label": "customerBalance",
						"offset": 0,
						"slot": "0",
						"type": "t_mapping(t_address,t_uint256)"
					}
				],
				"types": {
					"t_address": {
						"encoding": "inplace",
						"label": "address",
						"numberOfBytes": "20"
					},
					"t_mapping(t_address,t_uint256)": {
						"encoding": "mapping",
						"key": "t_address",
						"label": "mapping(address => uint256)",
						"numberOfBytes": "32",
						"value": "t_uint256"
					},
					"t_uint256": {
						"encoding": "inplace",
						"label": "uint256",
						"numberOfBytes": "32"
					}
				}
			},
			"userdoc": {
				"kind": "user",
				"methods": {},
				"version": 1
			}
		}
	}
}